:1000000009C016C015C015C013C012C011C010C061
:100010000FC00EC011241FBECFE9CDBF20E0A0E667
:10002000B0E001C01D92A336B207E1F765D095C0DC
:10003000E7CF1F920F920FB60F9211248F938091EA
:100040006100833219F41092610005C08091610053
:100050008F5F8093610080916200882329F08091F6
:1000600062008150809362008F910F900FBE0F90BD
:100070001F90189580936200809162008111FCCFDF
:10008000089512BE83B78B7F83BF83B7826083BF1F
:1000900083B7816083BF83B7877F83BF8FB58C7F32
:1000A0008FBD89B7826089BF17BABC9AC498BB9AC2
:1000B000C39AB898C09AB998C198BA9AC29881E080
:1000C000809360001092610010926200089588236E
:1000D00011F0C3980895C39A0895813031F018F053
:1000E000823029F00895C4980895C49A089588B379
:1000F00090E1892788BB0895F894C3DF7894C3E022
:10010000D1E080916000823071F08330A1F08130C5
:1001100001F5B0991EC0C398E0DF82E080936000D3
:1001200086E990E015C0B19B14C0B09912C0C0938D
:100130006000C29A0EC082E0D0DFB19907C080E0B3
:10014000C6DFC498C298D093600003C085E090E0F9
:0E01500091DF82E090E08EDFD4CFF894FFCFF5
:00000001FF
